:100000000C9472000C9493000C9493000C94930045
:100010000C9493000C9493000C9493000C94930014
:100020000C9493000C9493000C9493000C94930004
:100030000C9493000C9493000C9493000C949300F4
:100040000C9493000C9493000C9493000C949300E4
:100050000C9493000C9493000C9493000C949300D4
:100060000C9493000C9493000C9493000C949300C4
:100070000C9493000C9493000C9493000C949300B4
:100080000C9493000C9493000C9493000C949300A4
:100090000C9493000C9493000C9493000C94930094
:1000A0000C9493000C9493000C9493000C94930084
:1000B0000C9493000C94AE010C9493000C94930058
:1000C0000C9493000C9493000C9493000C94930064
:1000D0000C9493000C9493000C9493000C94930054
:1000E0000C94930011241FBECFEFD1E2DEBFCDBF31
:1000F00000E00CBF12E0A0E0B2E0EAEAFDE000E0C0
:100100000BBF02C007900D92A030B107D9F712E0E3
:10011000A0E0B2E001C01D92A332B107E1F70E9456
:1001200050040C94D3060C94000080B3817080BB03
:1001300011BAE7E0F1E08081807C808310920801B1
:100140000895EAE7F0E0108210927B0080E280934D
:100150007C0080E880BF86E880830895883018F0AE
:1001600098E090937B008770806280937C00EAE740
:10017000F0E0808180648083808184FFFDCF809166
:100180007900EAE7F0E090819061908310927B0023
:1001900008950F931F93BC0180E090E00E94BB057F
:1001A000462F572F682F792FCB01BA012BED34EA58
:1001B00042EA5AE30E944906462F572F682F792FAB
:1001C000CB01BA012AE037ED43EA5BE30E94BE04AB
:1001D000B62FA72F382F292F60E070E080E291E43E
:1001E000422F0B2F1A2F232F342FA90198010E9481
:1001F0002205462F572F682F792FCB01BA012AE904
:1002000039E941EC51E40E94BD040E948A05882727
:1002100077FD8095982F0E94BD050E948F05862F3F
:10022000972F1F910F910895E1EAF0E0108210924C
:10023000A9001092A8001092AB001092AA00109290
:10024000AD001092AC0080E890E79093A7008093F7
:10025000A6001092A20082E08093A0008CE180832F
:10026000089510921B0210921C0210921D0200971A
:1002700061F0EBE1F2E02AE030E0B9010E94C00653
:100280008193862F972F0097C1F780911D02805D83
:100290008093C600E0ECF0E0808185FFFDCF809187
:1002A0001C02805D8093C600E0ECF0E0808185FF59
:1002B000FDCF80911B02805D8093C600E0ECF0E0F2
:1002C000808185FFFDCF80E28093C600E0ECF0E006
:1002D000808185FFFDCF089583E00E94AE0080936A
:1002E000070282E00E94AE008093060281E00E9435
:1002F000AE008093050289E00E94AE008093110257
:100300008AE00E94AE00809312028BE00E94AE0051
:10031000809318028CE00E94AE0080931E028DE054
:100320000E94AE0080930A0284E00E94AE00809397
:10033000140285E00E94AE0080930B0286E00E94CA
:10034000AE0080930E0287E00E94AE0080931702F9
:1003500088E00E94AE008093040208951F920F92DD
:100360000FB60F920BB60F9211242F933F934F931A
:100370005F936F937F938F939F93AF93BF93EF930D
:10038000FF93F8940E946C018091080290910902F9
:100390000E9431018091070290E00E94310180911A
:1003A000060290E00E9431018091050290E00E94D7
:1003B00031018091110290E00E94C9000E94310138
:1003C0008091120290E00E94C9000E943101809148
:1003D000180290E00E94C9000E94310180911E0223
:1003E00090E00E94C9000E94310180910A0290E0D1
:1003F0000E94C9000E9431018091140290E00E9485
:10040000310180910B0290E00E94310180910E0237
:1004100090E00E9431018091170290E00E9431012A
:100420008091040290E00E94310180910802909135
:100430000902019690930902809308027894FF9133
:10044000EF91BF91AF919F918F917F916F915F914C
:100450004F913F912F910F900BBE0F900FBE0F90B9
:100460001F901895E1ECF0E010821092C00086E039
:100470008093C2008FE58093C4001092C50088E984
:10048000808308950E9495000895F8940E94420286
:100490000E9414010E94A1000E94320281E0809318
:1004A00072007894089586E69EE00197F1F70000C7
:1004B0004098419880E388B9429AEFEFF7E431978A
:1004C000F1F700C000004298E6E6FEE03197F1F750
:1004D00000004098419888B9429AEFEFF7E43197CD
:1004E000F1F700C000004298E6E6FEE03197F1F730
:1004F00000004098419888B9429A8FEF97E401979D
:10050000F1F700C000004298E6E6FEE03197F1F70F
:1005100000004098419880E288B9429A8FEF97E4B2
:100520000197F1F700C000004298089598B19F70BC
:1005300098B998B1282F207F922B98B9409841986C
:10054000429AEFEFF7E43197F1F700C000004298CC
:1005500098B19F7098B998B18295807F892B88B99E
:1005600040984198429A8FEF97E40197F1F700C0C5
:100570000000429808950E94530286E69EE001978B
:10058000F1F7000088E20E94960281E00E94960244
:1005900086E00E9496028EE00E94960280E80E9409
:1005A0009602089598B19F7098B998B1282F207F2E
:1005B000922B98B9409A4198429AEFEFF7E431971D
:1005C000F1F700C00000429898B19F7098B998B1B7
:1005D0008295807F892B88B9409A4198429A8FEF03
:1005E00097E40197F1F700C000004298089580E871
:1005F0000E9496020895CF93DF93EC0188818823AF
:1006000031F021960E94D20289918823D9F7DF9197
:10061000CF910895823079F0833018F48130C9F495
:1006200005C0833069F08430A1F40FC0862F815853
:100630000E9496020895862F81540E949602089582
:10064000862F8D560E9496020895862F8D520E9405
:10065000960208950F931F93CF93DF938A01E901C8
:10066000882311F0662319F40E94F70202C00E9449
:100670000A03C530D10571F4C80160E177E20E9438
:10068000AC06CB01C09690930D0280930C020E94A1
:10069000D20203C0C430D105B9F4C80168EE73E0DA
:1006A0000E94AC06CB017093100260930F026AE0C7
:1006B00070E00E94AC06C0969093220280932102C3
:1006C0000E94D20281E001C080E0C330D10511F068
:1006D0008130B1F4C80164E670E00E94AC06CB0141
:1006E0007093100260930F026AE070E00E94AC0603
:1006F000C09690931A02809319020E94D20281E060
:10070000C230D10511F08130B1F42AE030E0C801E7
:10071000B9010E94AC06CB017093100260930F02E6
:10072000B9010E94AC06C096909316028093150200
:100730000E94D20281E0C130D10511F0813061F414
:10074000C8016AE070E00E94AC06C0969093200257
:1007500080931F020E94D202C630D1051CF085E4AE
:100760000E94D202DF91CF911F910F91089587B11E
:10077000876F87B988B1807888B9089510BA11BA9F
:100780001092070110920801089581B18F6081B91C
:1007900082B1807F82B9EAE0F1E080818861808364
:1007A000EBE0F1E080818861808308950E94B703C7
:1007B0000E94BE030E94C5030895E1E2F1E01082A9
:1007C0008FEF8093250191E09093240110922901ED
:1007D0008093280110922B0180932A0110922D0101
:1007E00080932C0189EA809320018BE08083089517
:1007F000EAE7F0E0108210927B0080E280937C00B8
:1008000080E880BF86E880830895883018F098E0FB
:1008100090937B008770806280937C00EAE7F0E031
:10082000808180648083808184FFFDCF8091790006
:10083000EAE7F0E090819061908310927B00089548
:10084000CF93DF93D82FC62F842F0E940504482F03
:10085000809313028D2F6C2F50E023E030E00E9434
:100860002A03DF91CF9108958093280160932A0194
:10087000089592B1907F8F70982B92B9089586E079
:100880000E943904089580E00E9439040895F89484
:100890000E94D6030E94F8030E94DD037894089515
:1008A0000E9447040E9453020E94BB020E9445021C
:1008B00083E00E9405048093020282E00E94050406
:1008C0008093010281E00E9405048093000210924F
:1008D000030281E061E043E00E94200481E065E0E2
:1008E00042E00E94200481E069E041E00E9420048F
:1008F00080910102883248F481E0809303020E94D3
:100900003F0486E966E90E9434048091020289323C
:1009100068F080910302882349F481E08093030208
:100920000E943F0482E862E30E9434048091000246
:10093000893268F080910302882349F481E0809332
:1009400003020E943F0482E362E80E943404809123
:100950000102893208F4ACCF80910202893208F496
:10096000A7CF80910002893208F4A2CF0E943F04F1
:1009700080E060E00E9434049BCF5058BB27AA2738
:100980000ED04DC13ED130F043D120F031F49F3F25
:1009900011F41EF433C10EF4E095E7FB29C1E92FF1
:1009A0004FD180F3BA17620773078407950718F0D1
:1009B00071F49EF567C10EF4E0950B2EBA2FA02DB1
:1009C0000B01B90190010C01CA01A0011124FF27FC
:1009D000591B99F0593F50F4503E68F11A16F040F7
:1009E000A22F232F342F4427585FF3CF46953795F6
:1009F0002795A795F0405395C9F77EF41F16BA0BBB
:100A0000620B730B840BBAF09150A1F0FF0FBB1F68
:100A1000661F771F881FC2F70EC0BA0F621F731FB1
:100A2000841F48F4879577956795B795F7959E3F0E
:100A300008F0B3CF9395880F08F09927EE0F97959C
:100A4000879508950CD0EBC0E3D040F0DAD030F0B9
:100A500021F45F3F19F0CCC0511115C1CFC0F0D0C7
:100A600098F39923C9F35523B1F3951B550BBB2775
:100A7000AA2762177307840738F09F5F5F4F220F22
:100A8000331F441FAA1FA9F333D00E2E3AF0E0E81B
:100A900030D091505040E695001CCAF729D0FE2F67
:100AA00027D0660F771F881FBB1F261737074807F9
:100AB000AB07B0E809F0BB0B802DBF01FF279358AF
:100AC0005F4F2AF09E3F510568F092C0DCC05F3F47
:100AD000ECF3983EDCF3869577956795B795F79597
:100AE0009F5FC9F7880F911D9695879597F908958F
:100AF000E1E0660F771F881FBB1F6217730784072B
:100B0000BA0720F0621B730B840BBA0BEE1F88F739
:100B1000E095089504D06894B111B5C0089598D0B7
:100B200088F09F5790F0B92F9927B751A0F0D1F0D6
:100B3000660F771F881F991F1AF0BA95C9F712C060
:100B4000B13081F09FD0B1E008959CC0672F782F1D
:100B50008827B85F39F0B93FCCF3869577956795CC
:100B6000B395D9F73EF490958095709561957F4F38
:100B70008F4F9F4F0895E89409C097FB3EF49095DE
:100B80008095709561957F4F8F4F9F4F9923A9F066
:100B9000F92F96E9BB279395F695879577956795F5
:100BA000B795F111F8CFFAF4BB0F11F460FF1BC039
:100BB0006F5F7F4F8F4F9F4F16C0882311F096E9CC
:100BC00011C0772321F09EE8872F762F05C066237A
:100BD00071F096E8862F70E060E02AF09A95660F33
:100BE000771F881FDAF7880F9695879597F90895EC
:100BF00097F99F6780E870E060E008959FEF80ECD0
:100C0000089500240A941616170618060906089572
:100C100000240A9412161306140605060895092ED8
:100C20000394000C11F4882352F0BB0F40F4BF2B47
:100C300011F460FF04C06F5F7F4F8F4F9F4F089587
:100C400057FD9058440F551F59F05F3F71F047957D
:100C5000880F97FB991F61F09F3F79F08795089562
:100C6000121613061406551FF2CF4695F1DF08C081
:100C7000161617061806991FF1CF8695710561059E
:100C800008940895E894BB2766277727CB0197F946
:100C900008950BD0C4CFB5DF28F0BADF18F0952344
:100CA00009F0A6CFABCF1124EECFCADFA0F3959FFA
:100CB000D1F3950F50E0551F629FF001729FBB2743
:100CC000F00DB11D639FAA27F00DB11DAA1F649FEF
:100CD0006627B00DA11D661F829F2227B00DA11DA2
:100CE000621F739FB00DA11D621F839FA00D611D28
:100CF000221F749F3327A00D611D231F849F600D49
:100D0000211D822F762F6A2F11249F5750408AF081
:100D1000E1F088234AF0EE0FFF1FBB1F661F771F0D
:100D2000881F91505040A9F79E3F510570F060CF49
:100D3000AACF5F3FECF3983EDCF3869577956795F5
:100D4000B795F795E7959F5FC1F7FE2B880F911D2B
:100D50009695879597F90895AA1BBB1B51E107C08B
:100D6000AA1FBB1FA617B70710F0A61BB70B881F3B
:100D7000991F5A95A9F780959095BC01CD010895CA
:100D800097FB092E07260AD077FD04D0E5DF06D0B1
:100D900000201AF4709561957F4F0895F6F79095AD
:0A0DA00081959F4F0895F894FFCF4E
:00000001FF
