:100000000C9472000C9493000C9493000C94930045
:100010000C9493000C94E0010C94C9010C9493008F
:100020000C9493000C9493000C9493000C94930004
:100030000C9493000C9493000C9493000C949300F4
:100040000C9493000C9493000C9493000C949300E4
:100050000C9493000C9493000C9493000C949300D4
:100060000C9493000C9493000C9493000C949300C4
:100070000C9493000C9493000C9493000C949300B4
:100080000C9493000C9493000C9493000C949300A4
:100090000C9493000C9493000C9493000C94930094
:1000A0000C9493000C9493000C9493000C94930084
:1000B0000C9493000C9435020C9493000C949300D0
:1000C0000C9493000C9493000C9493000C94930064
:1000D0000C9493000C9493000C9493000C94930054
:1000E0000C94930011241FBECFEFD1E2DEBFCDBF31
:1000F00000E00CBF12E0A0E0B2E0EAE7FEE000E0C2
:100100000BBF02C007900D92A030B107D9F712E0E3
:10011000A0E0B2E001C01D92A332B107E1F70E9456
:10012000B8040C943B070C94000080B3817080BB32
:1001300011BAE7E0F1E08081807C808310920801B1
:100140000895EAE7F0E0108210927B0080E280934D
:100150007C0080E880BF86E880830895883018F0AE
:1001600098E090937B008770806280937C00EAE740
:10017000F0E0808180648083808184FFFDCF809166
:100180007900EAE7F0E090819061908310927B0023
:1001900008950F931F93BC0180E090E00E94230616
:1001A000462F572F682F792FCB01BA012BED34EA58
:1001B00042EA5AE30E94B106462F572F682F792F43
:1001C000CB01BA012AE037ED43EA5BE30E94260542
:1001D000B62FA72F382F292F60E070E080E291E43E
:1001E000422F0B2F1A2F232F342FA90198010E9481
:1001F0008A05462F572F682F792FCB01BA012AE99C
:1002000039E941EC51E40E9425050E94F205882756
:1002100077FD8095982F0E9425060E94F705862F6E
:10022000972F1F910F910895E1EAF0E0108210924C
:10023000A9001092A8001092AB001092AA00109290
:10024000AD001092AC0080E890E79093A7008093F7
:10025000A6001092A20082E08093A0008CE180832F
:10026000089510921C0210921D0210921E02009717
:1002700061F0ECE1F2E02AE030E0B9010E942807E9
:100280008193862F972F0097C1F780911E02805D82
:100290008093C600E0ECF0E0808185FFFDCF809187
:1002A0001D02805D8093C600E0ECF0E0808185FF58
:1002B000FDCF80911C02805D8093C600E0ECF0E0F1
:1002C000808185FFFDCF80E28093C600E0ECF0E006
:1002D000808185FFFDCF089583E00E94AE0080936A
:1002E0000B0282E00E94AE0080930A0281E00E942D
:1002F000AE008093090289E00E94AE008093130251
:100300008AE00E94AE00809314028BE00E94AE004F
:100310008093190284E00E94AE008093160285E06B
:100320000E94AE0080930E0286E00E94AE00809391
:1003300008020895E1ECF0E010821092C00086E01F
:100340008093C2008FE58093C4001092C50088E9B5
:10035000808308956C98749A08956D98759A08959D
:100360000E9495000E94AA010E94AD010895F89490
:10037000EAE6F0E0808182608083EC9A78940895C8
:10038000F894EAE6F0E0808188608083ED9A7894C2
:1003900008951F920F920FB60F9211248F939F937F
:1003A000809104029091050201969093050280933A
:1003B00004029F918F910F900FBE0F901F90189580
:1003C0001F920F920FB60F9211248F939F938091DB
:1003D000060290910702019690930702809306020D
:1003E0009F918F910F900FBE0F901F901895609165
:1003F000060270910702882777FD8095982F0E944A
:1004000025062BE734E14EEA50E40E94B10620E0D5
:1004100030E040EA50E40E948A050E94F205109202
:10042000070210920602862F972F0895609104020A
:1004300070910502882777FD8095982F0E942506E8
:100440002BE734E14EEA50E40E94B10620E030E0B0
:1004500040EA50E40E948A050E94F20510920502CB
:1004600010920402862F972F08951F920F920FB6B5
:100470000F920BB60F9211242F933F934F935F93DC
:100480006F937F938F939F93AF93BF93EF93FF935C
:10049000F8940E946C0180910C0290910D020E94D0
:1004A000310180910B0290E00E94310180910A029B
:1004B00090E00E9431018091090290E00E94310198
:1004C0008091130290E00E94C9000E943101809146
:1004D000140290E00E94C9000E943101809119022B
:1004E00090E00E94C9000E9431018091160290E0C4
:1004F0000E94310180910E0290E00E9431018091B2
:10050000080290E00E9431010E94F7010E9431012F
:100510000E9416020E94310180910C0290910D02FE
:10052000019690930D0280930C027894FF91EF91C5
:10053000BF91AF919F918F917F916F915F914F91FB
:100540003F912F910F900BBE0F900FBE0F901F90F9
:100550001895F8940E94B0010E9414010E94A10015
:100560000E949A0181E0809372000E94B7010E946C
:10057000C0017894089586E69EE00197F1F70000A7
:100580004098419880E388B9429AEFEFF7E43197B9
:10059000F1F700C000004298E6E6FEE03197F1F77F
:1005A00000004098419888B9429AEFEFF7E43197FC
:1005B000F1F700C000004298E6E6FEE03197F1F75F
:1005C00000004098419888B9429A8FEF97E40197CC
:1005D000F1F700C000004298E6E6FEE03197F1F73F
:1005E00000004098419880E288B9429A8FEF97E4E2
:1005F0000197F1F700C000004298089598B19F70EC
:1006000098B998B1282F207F922B98B9409841989B
:10061000429AEFEFF7E43197F1F700C000004298FB
:1006200098B19F7098B998B18295807F892B88B9CD
:1006300040984198429A8FEF97E40197F1F700C0F4
:100640000000429808950E94BB0286E69EE0019752
:10065000F1F7000088E20E94FE0281E00E94FE02A3
:1006600086E00E94FE028EE00E94FE0280E80E9468
:10067000FE02089598B19F7098B998B1282F207FF5
:10068000922B98B9409A4198429AEFEFF7E431974C
:10069000F1F700C00000429898B19F7098B998B1E6
:1006A0008295807F892B88B9409A4198429A8FEF32
:1006B00097E40197F1F700C000004298089580E8A0
:1006C0000E94FE020895CF93DF93EC018881882376
:1006D00031F021960E943A0389918823D9F7DF915E
:1006E000CF910895823079F0833018F48130C9F4C5
:1006F00005C0833069F08430A1F40FC0862F815883
:100700000E94FE020895862F81540E94FE020895E1
:10071000862F8D560E94FE020895862F8D520E94CC
:10072000FE0208950F931F93CF93DF938A01E9018F
:10073000882311F0662319F40E945F0302C00E940F
:100740007203C530D10571F4C80160E177E20E94FF
:100750001407CB01C0969093100280930F020E9461
:100760003A0303C0C430D105B9F4C80168EE73E0A0
:100770000E941407CB0170931202609311026AE089
:1007800070E00E941407C096909322028093210289
:100790000E943A0381E001C080E0C330D10511F02E
:1007A0008130B1F4C80164E670E00E941407CB0107
:1007B00070931202609311026AE070E00E941407C5
:1007C000C09690931B0280931A020E943A0381E024
:1007D000C230D10511F08130B1F42AE030E0C80117
:1007E000B9010E941407CB017093120260931102A9
:1007F000B9010E941407C0969093180280931702C3
:100800000E943A0381E0C130D10511F0813061F4DA
:10081000C8016AE070E00E941407C096909320021D
:1008200080931F020E943A03C630D1051CF085E474
:100830000E943A03DF91CF911F910F91089587B1E4
:10084000876F87B988B1807888B9089510BA11BACE
:100850001092070110920801089581B18F6081B94B
:1008600082B1807F82B9EAE0F1E080818861808393
:10087000EBE0F1E080818861808308950E941F048D
:100880000E9426040E942D040895E1E2F1E0108206
:100890008FEF8093250191E090932401109229011C
:1008A0008093280110922B0180932A0110922D0130
:1008B00080932C0189EA809320018BE08083089546
:1008C000EAE7F0E0108210927B0080E280937C00E7
:1008D00080E880BF86E880830895883018F098E02B
:1008E00090937B008770806280937C00EAE7F0E061
:1008F000808180648083808184FFFDCF8091790036
:10090000EAE7F0E090819061908310927B00089577
:10091000CF93DF93D82FC62F842F0E946D04482FCA
:10092000809315028D2F6C2F50E023E030E00E9461
:100930009203DF91CF9108958093280160932A015B
:10094000089592B1907F8F70982B92B9089586E0A8
:100950000E94A104089580E00E94A1040895F894E3
:100960000E943E040E9460040E9445047894089509
:100970000E94AF040E94BB020E9423030E94A902AE
:1009800083E00E946D048093020282E00E946D0465
:100990008093010281E00E946D0480930002109216
:1009A000030281E061E043E00E94880481E065E0A9
:1009B00042E00E94880481E069E041E00E948804EE
:1009C00080910102883248F481E0809303020E9402
:1009D000A70486E966E90E949C048091020289329C
:1009E00068F080910302882349F481E08093030238
:1009F0000E94A70482E862E30E949C0480910002A6
:100A0000893268F080910302882349F481E0809361
:100A100003020E94A70482E362E80E949C04809182
:100A20000102893208F4ACCF80910202893208F4C5
:100A3000A7CF80910002893208F4A2CF0E94A704B8
:100A400080E060E00E949C049BCF5058BB27AA27FF
:100A50000ED04DC13ED130F043D120F031F49F3F54
:100A600011F41EF433C10EF4E095E7FB29C1E92F20
:100A70004FD180F3BA17620773078407950718F000
:100A800071F49EF567C10EF4E0950B2EBA2FA02DE0
:100A90000B01B90190010C01CA01A0011124FF272B
:100AA000591B99F0593F50F4503E68F11A16F04026
:100AB000A22F232F342F4427585FF3CF4695379525
:100AC0002795A795F0405395C9F77EF41F16BA0BEA
:100AD000620B730B840BBAF09150A1F0FF0FBB1F98
:100AE000661F771F881FC2F70EC0BA0F621F731FE1
:100AF000841F48F4879577956795B795F7959E3F3E
:100B000008F0B3CF9395880F08F09927EE0F9795CB
:100B1000879508950CD0EBC0E3D040F0DAD030F0E8
:100B200021F45F3F19F0CCC0511115C1CFC0F0D0F6
:100B300098F39923C9F35523B1F3951B550BBB27A4
:100B4000AA2762177307840738F09F5F5F4F220F51
:100B5000331F441FAA1FA9F333D00E2E3AF0E0E84A
:100B600030D091505040E695001CCAF729D0FE2F96
:100B700027D0660F771F881FBB1F26173707480728
:100B8000AB07B0E809F0BB0B802DBF01FF279358DE
:100B90005F4F2AF09E3F510568F092C0DCC05F3F76
:100BA000ECF3983EDCF3869577956795B795F795C6
:100BB0009F5FC9F7880F911D9695879597F90895BE
:100BC000E1E0660F771F881FBB1F6217730784075A
:100BD000BA0720F0621B730B840BBA0BEE1F88F769
:100BE000E095089504D06894B111B5C0089598D0E7
:100BF00088F09F5790F0B92F9927B751A0F0D1F006
:100C0000660F771F881F991F1AF0BA95C9F712C08F
:100C1000B13081F09FD0B1E008959CC0672F782F4C
:100C20008827B85F39F0B93FCCF3869577956795FB
:100C3000B395D9F73EF490958095709561957F4F67
:100C40008F4F9F4F0895E89409C097FB3EF490950D
:100C50008095709561957F4F8F4F9F4F9923A9F095
:100C6000F92F96E9BB279395F69587957795679524
:100C7000B795F111F8CFFAF4BB0F11F460FF1BC068
:100C80006F5F7F4F8F4F9F4F16C0882311F096E9FB
:100C900011C0772321F09EE8872F762F05C06623A9
:100CA00071F096E8862F70E060E02AF09A95660F62
:100CB000771F881FDAF7880F9695879597F908951B
:100CC00097F99F6780E870E060E008959FEF80ECFF
:100CD000089500240A9416161706180609060895A2
:100CE00000240A9412161306140605060895092E08
:100CF0000394000C11F4882352F0BB0F40F4BF2B77
:100D000011F460FF04C06F5F7F4F8F4F9F4F0895B6
:100D100057FD9058440F551F59F05F3F71F04795AC
:100D2000880F97FB991F61F09F3F79F08795089591
:100D3000121613061406551FF2CF4695F1DF08C0B0
:100D4000161617061806991FF1CF869571056105CD
:100D500008940895E894BB2766277727CB0197F975
:100D600008950BD0C4CFB5DF28F0BADF18F0952373
:100D700009F0A6CFABCF1124EECFCADFA0F3959F29
:100D8000D1F3950F50E0551F629FF001729FBB2772
:100D9000F00DB11D639FAA27F00DB11DAA1F649F1E
:100DA0006627B00DA11D661F829F2227B00DA11DD1
:100DB000621F739FB00DA11D621F839FA00D611D57
:100DC000221F749F3327A00D611D231F849F600D78
:100DD000211D822F762F6A2F11249F5750408AF0B1
:100DE000E1F088234AF0EE0FFF1FBB1F661F771F3D
:100DF000881F91505040A9F79E3F510570F060CF79
:100E0000AACF5F3FECF3983EDCF386957795679524
:100E1000B795F795E7959F5FC1F7FE2B880F911D5A
:100E20009695879597F90895AA1BBB1B51E107C0BA
:100E3000AA1FBB1FA617B70710F0A61BB70B881F6A
:100E4000991F5A95A9F780959095BC01CD010895F9
:100E500097FB092E07260AD077FD04D0E5DF06D0E0
:100E600000201AF4709561957F4F0895F6F79095DC
:0A0E700081959F4F0895F894FFCF7D
:00000001FF
