:100000000C94B3000C949F150C94D4000C94D40061
:100010000C94D4000C94F80A0C94920A0C94D4001A
:100020000C94D4000C94D4000C94D4000C94D40000
:100030000C94D4000C94D4000C94D4000C94D400F0
:100040000C94D4000C94D4000C94D4000C94D400E0
:100050000C94D4000C94D4000C94D4000C94D400D0
:100060000C94D4000C94D4000C94D4000C94D400C0
:100070000C94D4000C94D4000C94D4000C94D400B0
:100080000C94D4000C94D4000C94D4000C94C6149A
:100090000C94D4000C94D4000C94D4000C94D40090
:1000A0000C94D4000C94D4000C94D4000C94D40080
:1000B0000C94D4000C9458020C94D4000C94D400EA
:1000C0000C94D4000C94D4000C94D4000C94D40060
:1000D0000C94D4000C94D4000C94D4000C94D40050
:1000E0000C94D40007634236B79BD8A71A396856D8
:1000F00018AEBAAB558C1D3CB7CC5763BD6DEDFD4A
:10010000753EF6177231BF000000803F0800000006
:10011000BE922449123EABAAAA2ABECDCCCC4C3EFC
:1001200000000080BEABAAAAAA3E00000000BF00EB
:100130000000803F0000000000084178D3BB4387E7
:10014000D1133D190E3CC3BD4282AD2B3E68EC82FB
:1001500076BED98FE1A93E4C80EFFFBE01C4FF7F80
:100160003F000000000011241FBECFEFD1E2DEBF30
:10017000CDBF00E00CBF12E0A0E0B2E0E0E4F9E3A4
:1001800000E00BBF02C007900D92AA34B107D9F767
:1001900015E0AAE4B2E001C01D92A636B107E1F76E
:1001A0000E940E170C949E1C0C94000020E030E07E
:1001B00040E050E00AC0119201968A319105D9F7CA
:1001C0002F5F3F4F2A31310589F0F901EE0FFF1FF4
:1001D000E20FF31FEE0FFF1FEE0FFF1FEE0FFF1FCB
:1001E000E20FF31FE454FD4FCA01E5CF0895F894E0
:1001F000909329018093280170932B0160932A0129
:10020000789408950F931F93CF93DF938C01C0913F
:100210004C02D0914D022097A9F486E090E00E9414
:100220006F1BE82FF92FF0934D02E0934C021583DA
:1002300004831182108213821282F0934B02E093A6
:100240004A0219C086E090E00E946F1BE82FF92F48
:1002500015830483F983E883A0914C02B0914D0289
:10026000B383A2838D919C91119790934D028093BB
:100270004C0211821082809157029091580201968F
:100280009093580280935702DF91CF911F910F9165
:10029000089580B3817080BB11BAE7E0F1E08081FE
:1002A000807C8083109208010895EAE7F0E01082D4
:1002B00010927B0080E280937C0080E880BF86E81B
:1002C00080830895883018F098E090937B008770C1
:1002D000806280937C00EAE7F0E080818064808324
:1002E000808184FFFDCF80917900EAE7F0E0908182
:1002F0009061908310927B0008950F931F93BC012F
:1003000080E090E00E949C18462F572F682F792F8D
:10031000CB01BA012BED34EA42EA5AE30E948E196E
:10032000462F572F682F792FCB01BA012AE037EDDE
:1003300043EA5BE30E948817B62FA72F382F292F97
:1003400060E070E080E291E4422F0B2F1A2F232F00
:10035000342FA90198010E940318462F572F682FA8
:10036000792FCB01BA012AE939E941EC51E40E9425
:1003700087170E946B18882777FD8095982F0E9419
:100380009E180E947018862F972F1F910F91089525
:10039000E1EAF0E010821092A9001092A8001092F9
:1003A000AB001092AA001092AD001092AC0080E851
:1003B00090E79093A7008093A6001092A20082E09D
:1003C0008093A0008CE180830895109258051092CC
:1003D000590510925A05009761F0E8E5F5E02AE02A
:1003E00030E0B9010E945C1B8193862F972F009704
:1003F000C1F780915A05805D8093C600E0ECF0E083
:10040000808185FFFDCF80915905805D8093C60076
:10041000E0ECF0E0808185FFFDCF80915805805DA4
:100420008093C600E0ECF0E0808185FFFDCF80E2A4
:100430008093C600E0ECF0E0808185FFFDCF089559
:1004400083E00E94620180936C0282E00E9462015C
:1004500080936B0281E00E94620180936A0289E0CE
:100460000E9462018093B6028AE00E94620180933A
:10047000BB028BE00E946201809332058CE00E94F7
:10048000620180935D0584E00E94620180932D05E6
:1004900085E00E9462018093AA0286E00E946201C8
:1004A0008093AF0287E00E94620180936902089501
:1004B0001F920F920FB60F920BB60F9211242F932B
:1004C0003F934F935F936F937F938F939F93AF93DC
:1004D000BF93EF93FF93F8940E94200280916D02E6
:1004E00090916E020E94E50180916C0290E00E9462
:1004F000E50180916B0290E00E94E50180916A0223
:1005000090E00E94E5018091B60290E00E947D019A
:100510000E94E5018091BB0290E00E947D010E9453
:10052000E5018091320590E00E947D010E94E50185
:1005300080915D0590E00E947D010E94E50180911F
:100540002D0590E00E94E5018091AA0290E00E94B2
:10055000E5018091AF0290E00E94E501809169027F
:1005600090E00E94E50180916D0290916E020196EB
:1005700090936E0280936D027894FF91EF91BF91FA
:10058000AF919F918F917F916F915F914F913F912B
:100590002F910F900BBE0F900FBE0F901F901895CC
:1005A000E1ECF0E010821092C00086E08093C2007F
:1005B0008FE58093C4001092C50088E98083089578
:1005C0000E9449010895F8940E94E0020E94C80127
:1005D0000E9455010E94D00281E0809372007894BD
:1005E000089586E69EE00197F1F700004098419853
:1005F00080E388B9429AEFEFF7E43197F1F700C052
:1006000000004298E6E6FEE03197F1F700004098DE
:10061000419888B9429AEFEFF7E43197F1F700C0BB
:1006200000004298E6E6FEE03197F1F700004098BE
:10063000419888B9429A8FEF97E40197F1F700C08B
:1006400000004298E6E6FEE03197F1F7000040989E
:10065000419880E288B9429A8FEF97E40197F1F7C9
:1006600000C000004298089598B19F7098B998B161
:10067000282F207F922B98B940984198429AEFEF0B
:10068000F7E43197F1F700C00000429898B19F70ED
:1006900098B998B18295807F892B88B94098419804
:1006A000429A8FEF97E40197F1F700C0000042985B
:1006B00008950E94F10286E69EE00197F1F700009E
:1006C00088E20E94340381E00E94340386E00E94A5
:1006D00034038EE00E94340380E80E9434030895BE
:1006E00098B19F7098B998B1282F207F922B98B914
:1006F000409A4198429AEFEFF7E43197F1F700C042
:100700000000429898B19F7098B998B18295807F07
:10071000892B88B9409A4198429A8FEF97E40197C4
:10072000F1F700C000004298089580E80E94340369
:100730000895CF93DF93EC018881882331F02196CF
:100740000E94700389918823D9F7DF91CF91089592
:10075000823079F0833018F48130C9F405C08330D9
:1007600069F08430A1F40FC0862F81580E943403B1
:100770000895862F81540E9434030895862F8D5644
:100780000E9434030895862F8D520E9434030895E9
:100790000F931F93CF93DF938A01E901882311F010
:1007A000662319F40E94950302C00E94A803C53075
:1007B000D10571F4C80160E177E20E94481BCB01CA
:1007C000C0969093AE028093AD020E94700303C066
:1007D000C430D105B9F4C80168EE73E00E94481B2B
:1007E000CB017093B1026093B0026AE070E00E94A6
:1007F000481BC09690936105809360050E9470032A
:1008000081E001C080E0C330D10511F08130B1F446
:10081000C80164E670E00E94481BCB017093B102EE
:100820006093B0026AE070E00E94481BC09690930B
:100830003705809336050E94700381E0C230D105F0
:1008400011F08130B1F42AE030E0C801B9010E9412
:10085000481BCB017093B1026093B002B9010E94B2
:10086000481BC09690932F0580932E050E9470031D
:1008700081E0C130D10511F0813061F4C8016AE036
:1008800070E00E94481BC09690935F0580935E05C0
:100890000E947003C630D1051CF085E40E947003ED
:1008A000DF91CF911F910F910895F89480913D02AF
:1008B00090913E02009739F480E092E09093AC0270
:1008C0008093AB0239C09C01992324F4222733275B
:1008D000281B390B41E02E30340789F4181619060D
:1008E0003CF486E092E09093AC028093AB0224C08B
:1008F0008CE092E09093AC028093AB021DC0243B4D
:10090000310539F482E192E09093AC028093AB021E
:1009100013C02A35310581F4181619063CF48CE011
:1009200092E09093AC028093AB0206C086E092E026
:100930009093AC028093AB0282E06CE00E94A8032B
:100940008091AB029091AC020E94990382E061E039
:100950000E94A80388E192E00E94990340915F02FF
:100960005091600282E067E022E030E00E94C8031C
:1009700081E061E00E94A8038FE192E00E94990368
:1009800040913B0250913C0281E063E021E030E085
:100990000E94C80380E20E94700382E292E00E94FB
:1009A00099034091390250913A0281E067E021E0D9
:1009B00030E00E94C80380E20E94700385E292E06A
:1009C0000E949903409137025091380281E06BE018
:1009D00021E030E00E94C80380E20E94700388E2B8
:1009E00092E00E949903409135025091360281E0D5
:1009F0006FE021E030E00E94C80380E20E947003B3
:100A000078940895F8940E94D6002EE42093BD02B5
:100A100033E53093BE0295E49093C20287E580935C
:100A2000C6023093D5022093EE023093F1028093F8
:100A3000F2022093090380930C0390932203909376
:100A40003C038093520320936503309364038093A7
:100A50007E0390937F03209398038093AF0390933A
:100A6000B6032093C1033093C3038093C6039093CE
:100A7000DD033093D9032093DB038093F703309396
:100A8000F30320930B048093120480932504909326
:100A90003F04909356049093720490939E04309375
:100AA0009D0420938404909387043093B80480932A
:100AB000B7042093800390939A033093B403309348
:100AC000D0048093EA0420930405789408958F92CB
:100AD0009F92AF92BF92CF92DF92EF92FF920F93CD
:100AE0001F93CF93DF935C014B018617970769F43F
:100AF00080915B0590915C05009739F481E090E06E
:100B000090935C0580935B0551C08501000F111F18
:100B10000A0D1B1D000F111F000F111F000F111FC9
:100B20000A0D1B1D04541D4FEE24FF24C0E0D0E02D
:100B30000F2EF9E8CF2EF2E0DF2EF02DF8012191F3
:100B40008F012223F1F080913005909131058C17AF
:100B50009D07B9F08091590290915A02F601E80F71
:100B6000F91F2083019690935A0280935902B09204
:100B70003105A0923005CE01B4010E946705E80E50
:100B8000F91E2196C931D105C9F61E141F0464F05F
:100B90008091590290915A02019790935A02809342
:100BA000590280E090E002C081E090E0DF91CF91B7
:100BB0001F910F91FF90EF90DF90CF90BF90AF907B
:100BC0009F908F9008950F931F93CF93DF93BC0155
:100BD00080915F029091600288309105A1F46731A5
:100BE000710589F483E58093700297E59093710213
:100BF000809372021092730281E090E090935A0207
:100C000080935902D0C0E0915902F0915A02E15903
:100C1000FD4F8081882309F0C3C0F89470935E0271
:100C200060935D0220915F02309160023093310544
:100C300020933005CFE6D2E08E01CE014A96FE0128
:100C40001192E817F907E1F781E090E090935A02DA
:100C50008093590210925C0510925B05C9010E94B5
:100C600067052091590230915A0221503040055EAB
:100C70001F4F1992C017D107E1F71216130664F43B
:100C8000EAE8F2E0A0E7B2E081E090E041914D9324
:100C9000019628173907D4F780917002882331F420
:100CA00021E030E0F901E159FD4F2DC0A0E7B2E0AD
:100CB000ED0181E090E061E070E021E030E04FE69E
:100CC00052E001C0BC01ED91E53421F4EC91E7352F
:100CD00041F405C0E73529F4EC91E53411F4CB017A
:100CE0000296FA01E80FF91F608169932F5F3F4F69
:100CF0000196FA01E80FF91F6081662319F72B317D
:100D0000310584F206C011922F5F3F4F2B31310520
:100D1000D4F380917002882331F441E050E0FA016D
:100D2000E159FD4F2FC0A0E7B2E0ED0181E090E076
:100D300021E030E041E050E06FE672E001C0C9011F
:100D4000ED91E33521F4EC91EE3441F405C0EE343D
:100D500029F4EC91E33511F4C9010296FB01E80F87
:100D6000F91F208129934F5F5F4F9C012F5F3F4FF9
:100D7000FB01E20FF31F8081882309F74B315105F6
:100D800074F206C011924F5F5F4F4B315105D4F39F
:100D900081E090E090935A0280935902789403C0C6
:100DA000CB010E940201DF91CF911F910F91089515
:100DB0000F931F93CF93DF938C01C0914A02D09180
:100DC0004B022097A9F486E090E00E946F1BE82F69
:100DD000F92FF0934B02E0934A02158304831182AA
:100DE000108213821282F0934D02E0934C0214C0E1
:100DF00086E090E00E946F1BE82FF92F1583048393
:100E0000FB83EA83D183C0838A819B8190934B02C9
:100E100080934A0213821282809157029091580265
:100E200001969093580280935702DF91CF911F91C2
:100E30000F91089580915702909158020097B1F058
:100E400080914A0290914B02FC01208131813093C4
:100E50004B0220934A020E94051C809157029091F8
:100E600058020197909358028093570208952FEFEC
:100E700027B98130910511F4439A0895009709F438
:100E800043980895F89487B1876F87B988B18078BF
:100E900088B97894089591B19F6091B9863619F414
:100EA00086E082B90895823619F489E082B90895FE
:100EB0008C3619F485E082B90895823719F48AE0F6
:100EC00082B9089512B80895F89481B18F6081B9FC
:100ED000EAE0F1E0808188618083EBE0F1E08081ED
:100EE000886180838FEF90E09093250180932401A7
:100EF000E0E2F1E08081896A8083E1E2F1E08081D3
:100F00008B6080838FEF90E069EF70E00E94F700C4
:100F100078940895CF92DF92EF92FF921F93CF9330
:100F2000DF93C82F6A017B018FEF90E069EF70E0DB
:100F30000E94F70010926102109262021092630206
:100F4000109264021092650210926602109267027B
:100F50001092680260E070E080E090E019E0D6E076
:100F600017C0C63611F4D2B903C0C23609F412B99B
:100F700060916102709162028091630290916402BB
:100F80000E949C1823EA32E94AE05FE30E948E192E
:100F9000382F292F862F972FA32FB22FBC01CD01D9
:100FA0000E94EC17A70196010E94FF178823CCF23C
:100FB0000E941008DF91CF911F91FF90EF90DF907A
:100FC000CF90089581B18F6081B982B1807F82B95D
:100FD000EAE0F1E0808188618083EBE0F1E08081EC
:100FE000886180838FEF90E090932901809328019E
:100FF00090932B0180932A0108956C98749A089518
:101000006D98759A08950E94E2070E94FD070E945C
:101010000008089592B1907F8F70982B92B908952F
:1010200080E00E940A08089585E00E940A08089559
:101030008AE00E940A08089584E00E940A08089540
:1010400082E00E940A0808950F931F93CF93DF93C5
:10105000EC018FEF90E069EF70E00E94F700809163
:101060005F02909160020F978330910560F4BE019A
:1010700080E090E00E949C1823E333E343E950E4CE
:101080000E9403180BC0BE0180E090E00E949C18F3
:1010900028E431EE42E850E40E940318382F292F4B
:1010A000862F972FA32FB22FBC01CD010E9470185D
:1010B000DC01CB01A0E0B0E010926102109262026C
:1010C00010926302109264021092650210926602FE
:1010D0001092670210926802F1E0C0E04091610254
:1010E0005091620260916302709164020091650206
:1010F000109166022091670230916802EF2F481725
:1011000059076A077B0708F4EC2FEE2349F44F2FA9
:10111000081719072A073B0708F44C2F4423F1F25C
:101120000E9410080E945504DF91CF911F910F91EA
:101130000895EF92FF920F931F93CF93DF93EC01EB
:1011400080913D0290913E028C0F9D1F90933E0234
:1011500080933D020E941408CE010E9424088091D1
:101160003C0590913D058F30910508F040C080917D
:101170003A0590913B058F309105C8F580913E0569
:1011800090913F058F30910590F5CCE3D5E00AE3CF
:1011900015E00F2EFEE3EF2EF5E0FF2EF02D8FEF82
:1011A00090E069EF70E00E94F70080915F029091FB
:1011B00060028A30910511F0009731F484EB90E0E1
:1011C0006EEA70E00E94F7000E94140888819981FD
:1011D0008F30910560F4F801808191818F30910505
:1011E00030F4F701808191818F309105C0F20E9427
:1011F0001008DF91CF911F910F91FF90EF9008950C
:10120000EF92FF920F931F93CF93DF93EC018091A6
:101210003D0290913E028C1B9D0B90933E02809369
:101220003D020E941808CE010E94240880913C05CE
:1012300090913D058F30910508F040C080913E05AA
:1012400090913F058F309105C8F580913A059091B6
:101250003B058F30910590F5CCE3D5E00EE315E02A
:101260000F2EFAE3EF2EF5E0FF2EF02D8FEF90E03A
:1012700069EF70E00E94F70080915F029091600238
:101280008A30910511F0009731F484EB90E06EEA1A
:1012900070E00E94F7000E941808888199818F30C1
:1012A000910560F4F801808191818F30910530F4CF
:1012B000F701808191818F309105C0F20E94100862
:1012C000DF91CF911F910F91FF90EF900895CF93F1
:1012D000DF93EC0180913D0290913E028C0F9D1FA7
:1012E00090933E0280933D020E941C08CE01880F1D
:1012F000991F0E942408DF91CF910895CF93DF9327
:10130000EC0180913D0290913E028C1B9D0B9093CD
:101310003E0280933D020E942008CE01880F991F53
:101320000E942408DF91CF910895F8940E94030849
:10133000EAE6F0E0808188608083ED9A80818260B7
:101340008083EC9A78940895F89410928500109216
:1013500084008EE794E090938700809386002AEAC9
:10136000209380002CE12093810024B1206E24B9C9
:1013700025B1206725B990938900809388009093C8
:101380008B0080938A0090938D0080938C007894DA
:101390000895CF93DF93EC0180915F0290916002FA
:1013A0008D309105E1F4BE01882777FD8095982F57
:1013B0000E949E1825E83BEE41EF5FE30E94031870
:1013C00020E030E048EC51E40E9488170E94701839
:1013D000DC01CB0190938900809388001DC0BE0181
:1013E000882777FD8095982F0E949E1825E83BEE70
:1013F00041EF5FE30E94031820E030E048EC51E445
:101400000E9488170E94EC170E947018DC01CB0123
:101410009093890080938800D0934202C093410248
:10142000DF91CF910895CF93DF93EC01BE01882720
:1014300077FD8095982F0E949E1825E83BEE41EF9E
:101440005FE30E94031820E030E048EC51E40E9482
:1014500088170E94EC170E947018DC01CB01909352
:101460008B0080938A00D0934002C0933F02DF91AB
:10147000CF9108958EE794E090938900809388003F
:1014800008958EE794E090938B0080938A000895EE
:1014900085E090E00E94130A8FEF9FEFACE281504D
:1014A0009040A040E1F700C000000895F894109229
:1014B000900082E0809391001092920081E08093EE
:1014C000710010BA11BA1092070110920801EAE7F0
:1014D000F0E0108210927B0080E280937C0080E834
:1014E00080BF86E880830895883091051CF028E04D
:1014F00020937B0087709070806280937C00EAE785
:10150000F0E0808180648083808184FFFDCF8091C2
:101510007900EAE7F0E090819061908310927B007F
:1015200090E008951F920F920FB60F920BB60F9294
:1015300011240F931F932F933F934F935F936F93B8
:101540007F938F939F93AF93BF93CF93DF93EF934B
:10155000FF938091610290916202A0916302B09129
:1015600064020196A11DB11D8093610290936202F5
:10157000A0936302B093640280913D0290913E0279
:1015800099231CF4909581959F4F21E0883692070E
:1015900021F410923E0210923D02C0E0D0E008E338
:1015A00015E0CE010E94740A282F392FFE01EE0F9C
:1015B000FF1FE00FF11F318320832196C031D10539
:1015C00081F7FF91EF91DF91CF91BF91AF919F9103
:1015D0008F917F916F915F914F913F912F911F91CB
:1015E0000F910F900BBE0F900FBE0F901F9018958C
:1015F0001F920F920FB60F920BB60F9211240F93FA
:101600001F932F933F934F935F936F937F938F938A
:101610009F93AF93BF93CF93DF93EF93FF9380910B
:10162000650290916602A0916702B09168020196EE
:10163000A11DB11D8093650290936602A09367027D
:10164000B093680280913D0290913E0299231CF470
:10165000909581959F4F21E08836920721F4109252
:101660003E0210923D02C0E0D0E008E315E0CE015A
:101670000E94740A282F392FFE01EE0FFF1FE00F82
:10168000F11F318320832196C031D10581F7FF916D
:10169000EF91DF91CF91BF91AF919F918F917F910A
:1016A0006F915F914F913F912F911F910F910F90EB
:1016B0000BBE0F900FBE0F901F9018950F931F93A6
:1016C0009C01B901882777FD8095982F0E949E186C
:1016D0002FEE39EC43E95FE30E94F119B62FA72FF3
:1016E000382F292F60E070E080E89FE3422F0B2F16
:1016F0001A2F232F342FA90198010E9403182AE9D9
:1017000039EF4EE255E40E948E1920E030E040E2CD
:1017100051E40E948E190E946B18882777FD8095EE
:10172000982F0E949E180E946B18862F972F33E0E7
:101730008132930714F080E293E01F910F91089596
:10174000AF92BF92CF92DF92EF92FF920F931F93CF
:10175000CF93DF93E0915902F0915A02E159FD4F86
:101760008081882309F4EBC080915F029091600230
:101770008630910579F4E091AB02F091AC022081C2
:10178000253441F420915D0230915E02253131050E
:1017900009F516C08031910541F4E091AB02F0915A
:1017A000AC0220812735F9F415C08F30910541F442
:1017B000E091AB02F091AC028081873501F50AC05F
:1017C0008131910581F4E091AB02F091AC0280810E
:1017D0008735A9F486E640E050E060E470E42FE647
:1017E0000E948A0714C08E30910549F486E640E0D5
:1017F00050E060EE70E42FE60E948A0708C086E69B
:1018000040E050E068E071E42FE60E948A07E09132
:10181000AB02F091AC025081E0915902F0915A0272
:10182000E159FD4F4081852F90E0841B91092FEFF6
:10183000873F920731F08430910519F08E30910581
:10184000C1F4541709F470C0CFE6D2E08AE590E005
:101850000E949908E091AB02F091AC02A09159026C
:10186000B0915A02AC0FBD1F90818C91981771F7FF
:101870005BC020915F023091600223303105C1F4DA
:10188000541709F451C0CFE6D2E084EB90E00E94F7
:101890000009E091AB02F091AC02A0915902B09125
:1018A0005A02AC0FBD1F90818C91981771F73CC004
:1018B0009C01992324F422273327281B390B253038
:1018C000310519F4541739F42FC022313105D1F301
:1018D0005417B1F429C0CFE6D2E084EB90E00E9427
:1018E0009908E091AB02F091AC02A0915902B0913D
:1018F0005A02AC0FBD1F90818C91981771F714C0DC
:10190000CFE6D2E08AE590E00E940009E091AB02C8
:10191000F091AC02A0915902B0915A02AC0FBD1FD8
:1019200090818C91981771F78091590290915A0289
:10193000019690935A02809359020C94BB148091A3
:101940005D0290915E029093600280935F020E941C
:10195000550480915F02909160020F97833091054A
:1019600008F042C180913B0290913C0220913902E3
:1019700030913A02820F931F209137023091380242
:10198000820F931F8130910509F489C080915B0219
:1019900090915C02009709F082C00E9414088DE2C9
:1019A00090E00E94240886E640E050E060E571E4A3
:1019B0002FE60E948A070E9418088AEA90E00E9497
:1019C00024080E9410080E94431680915F029091A3
:1019D00060028F30910529F4809154028093A30214
:1019E0000FC08031910529F4809154028093A402A4
:1019F00007C08131910521F4809154028093A502A2
:101A00000E9414088AEA90E00E94240882E640E0DE
:101A100050E060E371E42FE60E948A0780913C0564
:101A200090913D058F30910590F580913A05909108
:101A30003B058F30910558F580913E0590913F050B
:101A40008F30910520F5CCE3D5E00AE315E00F2EA9
:101A5000FEE3EF2EF5E0FF2EF02D8FEF90E069EF23
:101A600070E00E94F7000E941808888199818F30E9
:101A7000910568F4D8018D919C9111978F30910553
:101A800030F4F701808191818F30910530F30E940D
:101A9000180889E190E00E9424080E941008E09153
:101AA0005202F0915302EE5CFA4F90818091540201
:101AB0009817A1F080913B0290913C02209139024D
:101AC00030913A02820F931F2091370230913802F1
:101AD000820F931F8130910509F060C08AE090E089
:101AE0000E94C9098FEF9FEFACE281509040A04067
:101AF000E1F700C000008DE290E00E94130A8FEF32
:101B00009FE7A4E081509040A040E1F700C00000B2
:101B100080E590E00E94C9098FEF9FEFACE2815011
:101B20009040A040E1F700C000000E94410A80916F
:101B30005F02909160028F30910551F480913B02D9
:101B400090913C02019790933C0280933B0219C014
:101B50008031910551F48091390290913A020197B8
:101B600090933A02809339020CC08131910549F477
:101B700080913702909138020197909338028093B8
:101B800037028AE090E00E94E30582E640E050E000
:101B900060EC70E42FE60E948A0726C082E640E0EF
:101BA00050E060EC70E42FE60E948A0780913B02CF
:101BB00090913C028130910561F480915F02909197
:101BC00060028F30910529F08FE090E00E94D806E6
:101BD0000BC080913702909138028130910521F439
:101BE00081E190E00E94D80680915F0290916002AE
:101BF0008130910509F09CC086E640E050E060E24B
:101C000071E42FE60E948A070E94140880913D0229
:101C100090913E02865A9F4F90933E0280933D02E0
:101C200089E690E00E9424080E9410088091330207
:101C3000909134028230910591F586E640E050E0C3
:101C400060E470E42FE60E948A0780E190E00E9441
:101C5000C9098FEF9FEFACE281509040A040E1F7BF
:101C600000C0000081E090E00E94130A8FEF9FEF18
:101C7000ACE281509040A040E1F700C0000082E853
:101C800090E00E94C9098FEF9FE7A1E38150904047
:101C9000A040E1F700C000000E943A0A34C0813041
:101CA000910589F586E640E050E060E870E42FE6B3
:101CB0000E948A078BE090E00E94C9098FEF9FEF96
:101CC000ACE281509040A040E1F700C0000081E00C
:101CD00090E00E94130A8FEF9FEFACE2815090409A
:101CE000A040E1F700C0000082E890E00E94C9092E
:101CF0008FEF9FE7A1E381509040A040E1F700C043
:101D000000000E943A0A80913302909134020197B8
:101D1000909334028093330282E640E050E060E624
:101D200071E42FE60E948A0784E090E00E94D806C2
:101D300080915F02909160028D30910509F01EC183
:101D400080912B0290912C02009709F47BC086E6CB
:101D500040E050E060E471E42FE60E948A07809141
:101D60002B0290912C028230910551F580E190E098
:101D70000E94C9098FEF9FEFACE281509040A040D4
:101D8000E1F700C0000081E090E00E94130A8FEFAD
:101D90009FEFACE281509040A040E1F700C000000E
:101DA00082E890E00E94C9098FEF9FE7A1E381508C
:101DB0009040A040E1F700C000000E943A0A2CC009
:101DC0008130910549F58BE090E00E94C9098FEFC1
:101DD0009FEFACE281509040A040E1F700C00000CE
:101DE00081E090E00E94130A8FEF9FEFACE28150F8
:101DF0009040A040E1F700C0000082E890E00E941F
:101E0000C9098FEF9FE7A1E381509040A040E1F71F
:101E100000C000000E943A0A80912B0290912C028F
:101E2000019790932C0280932B0282E640E050E0D1
:101E300060E671E42FE60E948A078EE090E00E943F
:101E4000D8069CC086E640E050E060E371E42FE6EF
:101E50000E948A070E94140880913D0290913E02E0
:101E6000865A9F4F90933E0280933D0281E690E018
:101E70000E9424080E94100880912D0290912E0249
:101E80008230910591F586E640E050E060E870E42C
:101E90002FE60E948A0780E190E00E94C9098FEF37
:101EA0009FEFACE281509040A040E1F700C00000FD
:101EB00081E090E00E94130A8FEF9FEFACE2815027
:101EC0009040A040E1F700C0000082E890E00E944E
:101ED000C9098FEF9FE7A1E381509040A040E1F74F
:101EE00000C000000E943A0A34C08130910589F593
:101EF00086E640E050E060E870E42FE60E948A0742
:101F00008BE090E00E94C9098FEF9FEFACE2815017
:101F10009040A040E1F700C0000081E090E00E9406
:101F2000130A8FEF9FEFACE281509040A040E1F7A1
:101F300000C0000082E890E00E94C9098FEF9FE78F
:101F4000A1E381509040A040E1F700C000000E9452
:101F50003A0A80912D0290912E02019790932E02C1
:101F600080932D0282E640E050E060E671E42FE6C7
:101F70000E948A078EE090E00E94D80680915F025E
:101F8000909160028330910509F082C086E640E0BE
:101F900050E068E471E42FE60E948A0780913102E4
:101FA000909132028230910551F580E190E00E94DB
:101FB000C9098FEF9FEFACE281509040A040E1F75C
:101FC00000C0000081E090E00E94130A8FEF9FEFB5
:101FD000ACE281509040A040E1F700C0000082E8F0
:101FE00090E00E94C9098FEF9FE7A1E381509040E4
:101FF000A040E1F700C000000E943A0A34C08130DE
:10200000910589F586E640E050E060E87FE32FE641
:102010000E948A078AE090E00E94C9098FEF9FEF33
:10202000ACE281509040A040E1F700C0000081E0A8
:1020300090E00E94130A8FEF9FEFACE28150904036
:10204000A040E1F700C0000082E890E00E94C909CA
:102050008FEF9FE7A1E381509040A040E1F700C0DF
:1020600000000E943A0A8091310290913202019759
:10207000909332028093310282E640E050E068E6BD
:1020800071E42FE60E948A0784E090E00E94D8065F
:1020900080915F02909160028C30910509F082C0BE
:1020A00086E640E050E060E471E42FE60E948A0793
:1020B00080912F02909130028230910551F580E19C
:1020C00090E00E94C9098FEF9FEFACE281509040F1
:1020D000A040E1F700C0000081E090E00E94130AF8
:1020E0008FEF9FEFACE281509040A040E1F700C03D
:1020F000000082E890E00E94C9098FEF9FE7A1E30A
:1021000081509040A040E1F700C000000E943A0AD0
:1021100034C08130910589F586E640E050E060E802
:102120007FE32FE60E948A078BE090E00E94C909B6
:102130008FEF9FEFACE281509040A040E1F700C0EC
:10214000000081E090E00E94130A8FEF9FEFACE265
:1021500081509040A040E1F700C0000082E890E08C
:102160000E94C9098FEF9FE7A1E381509040A040F2
:10217000E1F700C000000E943A0A80912F0290917E
:10218000300201979093300280932F0282E640E064
:1021900050E060E671E42FE60E948A078EE090E04E
:1021A0000E94D80680915F0290916002863091056E
:1021B00009F0D2C1809135029091360281309105AB
:1021C00009F479C182E640E050E060E470E420E385
:1021D0000E948A07809135029091360283309105E2
:1021E00009F082C086E640E050E060E070E420E361
:1021F0000E948A0785E290E00E94C9098FEF9FEF55
:10220000ACE281509040A040E1F700C000000E9485
:10221000480A80E590E00E94C9098FEF9FEFACE289
:1022200081509040A040E1F700C0000084EB90E0B6
:102230000E94990880E090E00E94C9098FEF9FEF0B
:10224000ACE281509040A040E1F700C000000E9445
:102250004316E0915202F0915302ED5CFA4F8091E7
:102260005402808380E590E00E94C9098FEF9FE7C8
:10227000A4E081509040A040E1F700C000008091B0
:10228000390290913A028130910529F480E190E081
:102290000E94E30517C080913B0290913C0281307F
:1022A000910529F48FE090E00E94E3050BC0809136
:1022B0003702909138028130910521F481E190E05C
:1022C0000E94E3058091590290915A0201969093E1
:1022D0005A028093590280915202909153020196C2
:1022E000909353028093520280913502909136026E
:1022F0008230910509F0D5C086E640E050E060E00C
:1023000070E42FE60E948A0789E190E00E94C909E3
:102310008FEF9FEFACE281509040A040E1F700C00A
:1023200000000E94480A80E590E00E94C9098FEFF2
:102330009FEFACE281509040A040E1F700C0000068
:1023400084EB90E00E94990880E090E00E94C90927
:102350008FEF9FEFACE281509040A040E1F700C0CA
:1023600000000E944316E0915202F0915302ED5C8E
:10237000FA4F80915402808380E590E00E94C90961
:102380008FEF9FE7A4E081509040A040E1F700C0AC
:102390000000C3EAD2E00FE010E0CC24DD240F2ED1
:1023A000F3E3AF2EF5E0BF2EF02D7E0180915202B7
:1023B000909153028A0D9B1DDC019C918881981796
:1023C00061F480915B0290915C02019690935C02B3
:1023D00080935B02C8010E94E3052196F70180818A
:1023E000882319F00894C11CD11C0F5F1F4F0331C3
:1023F0001105D9F6F3E0CF16D1044CF080915B02C1
:1024000090915C02019690935C0280935B02E09154
:102410005902F0915A02E159FD4F8081882379F5E4
:102420008091390290913A028130910549F480916E
:10243000A402882329F480E190E00E94E3051FC0F4
:1024400080913B0290913C028130910549F480914A
:10245000A302882329F48FE090E00E94E3050FC0D7
:1024600080913702909138028130910541F480913A
:10247000A502882321F481E190E00E94E305809188
:10248000590290915A02019690935A0280935902F0
:10249000809152029091530201969093530280933F
:1024A0005202809135029091360201979093360244
:1024B0008093350251C080915B0290915C0201963D
:1024C00090935C0280935B0280E090E00E94C909D7
:1024D0008FEF9FEFACE281509040A040E1F700C049
:1024E00000000E94480A80E590E00E94C9098FEF31
:1024F0009FEFACE281509040A040E1F700C00000A7
:102500008091390290913A028130910529F480E15D
:1025100090E00E94E30517C080913B0290913C023D
:102520008130910529F48FE090E00E94E3050BC013
:1025300080913702909138028130910521F481E138
:1025400090E00E94E305809152029091530201961F
:10255000909353028093520280915F0290916002A7
:102560008430910509F04BC082E640E050E060E81D
:1025700070E42FE60E948A0782E490E00E94C90975
:102580008FEF9FEFACE281509040A040E1F700C098
:1025900000008DE290E00E94130A8FEF9FE7A6E112
:1025A00081509040A040E1F700C000008AE590E033
:1025B0000E94C9090E94140880913D0290913E0238
:1025C0008C549F4F90933E0280933D0284EB90E0A9
:1025D0000E94240880E090E00E94E3058091590267
:1025E00090915A02019690935A028093590282E682
:1025F00040E050E060E870E42FE60E948A07809196
:102600005F02909160028E30910509F04BC082E626
:1026100040E050E060E870E42FE60E948A0782E420
:1026200090E00E94C9098FEF9FEFACE2815090408B
:10263000A040E1F700C000008DE290E00E94130A84
:102640008FEF9FE7A6E181509040A040E1F700C0E6
:1026500000008AE590E00E94C9090E941408809158
:102660003D0290913E028C549F4F90933E02809386
:102670003D0284EB90E00E9424088AE090E00E94F2
:10268000E3058091590290915A02019690935A0263
:102690008093590282E640E050E060E870E42FE663
:1026A0000E948A0780915F0290916002009709F072
:1026B00091C0E091AB02F091AC028081873509F4C2
:1026C00052C086E640E050E060E371E42FE60E94ED
:1026D0008A07E091AB02F091AC0220812E3421F008
:1026E0002B3511F0253661F48AE590E00E949908B7
:1026F000E091AB02F091AC0280818735A9F72BC045
:10270000822F90E0875590401AF4909581959F4FC5
:102710008530910519F4273539F41DC082319105B2
:10272000D1F3273569F417C084EB90E00E940009CB
:10273000E091AB02F091AC0280818735A9F70BC024
:102740008AE590E00E940009E091AB02F091AC02B2
:1027500080818735A9F782E640E050E060E371E4CC
:102760002FE60E948A0780914E0590914F050E94A6
:102770005E0BA1E08D329A072CF080915602809377
:10278000550212C089E480935502809131029091E4
:102790003202009729F481E090E00E94D80604C03C
:1027A00083E090E00E94D8060E9455048091410287
:1027B00090914202843B910569F080E590E00E948F
:1027C000C9098FEF9FEFA3E281509040A040E1F74D
:1027D00000C0000080915F02909160028A309105F4
:1027E00009F091C0E091AB02F091AC028081853498
:1027F00009F452C086E640E050E060E371E42FE661
:102800000E948A07E091AB02F091AC0220812C3348
:1028100021F0293411F0233561F48AE590E00E941B
:102820009908E091AB02F091AC0280818534A9F760
:102830002BC0822F90E0855490401AF4909581959A
:102840009F4F8530910519F4253439F41DC082312C
:102850009105D1F3253469F417C084EB90E00E9410
:102860000009E091AB02F091AC0280818534A9F7B8
:102870000BC08AE590E00E940009E091AB02F09164
:10288000AC0280818534A9F782E640E050E060E444
:1028900071E42FE60E948A0780914E0590914F05C2
:1028A0000E945E0BA1E08D329A072CF080915602B7
:1028B0008093550212C083E48093550280912F02C9
:1028C00090913002009729F08CE090E00E94D806A9
:1028D00004C08DE090E00E94D8060E9455048091CB
:1028E000410290914202843B910569F080E590E0BD
:1028F0000E94C9098FEF9FEFA3E281509040A04052
:10290000E1F700C0000080915702909158020097B3
:10291000A1F0E0915902F0915A02E159FD4F8081F6
:10292000882349F5E0914A02F0914B028481958118
:102930000E94E3050E941A071EC0E0915902F0911F
:102940005A02E159FD4F80818823A9F481E090E08B
:102950000E9437078FEF9FEFA9E581509040A0407C
:10296000E1F700C0000080E090E00E94370781E0BE
:1029700090E00E949E1CDF91CF911F910F91FF90DC
:10298000EF90DF90CF90BF90AF9008951F920F927D
:102990000FB60F920BB60F9211242F933F934F93C4
:1029A0005F936F937F938F939F93AF93BF93EF93B7
:1029B000FF9381E090E00E94740A282F392F309312
:1029C0003B0520933A0582E090E00E94740A282F8C
:1029D000392F30933D0520933C0583E090E00E9421
:1029E000740A282F392F30933F0520933E058BE042
:1029F00090E00E94740A282F392F30934F052093BE
:102A00004E0580915F02909160028A30910524F416
:102A100083E48093560203C089E480935602FF91B9
:102A2000EF91BF91AF919F918F917F916F915F9146
:102A30004F913F912F910F900BBE0F900FBE0F90B3
:102A40001F90189580913C0590913D058D3391051F
:102A500070F480913A0590913B058031910560F0CA
:102A600080913C0590913D058031910528F00E94B0
:102A700010080E94A00B089580913C0590913D059F
:102A80008031910598F080913A0590913B05803115
:102A9000910538F480913E0590913F058031910574
:102AA00028F00E9410080E94A00B089580913A051A
:102AB00090913B058031910580F080913E05909189
:102AC0003F058F30910548F484EB90E06EEA70E0AA
:102AD0000E94F7000E941808089580913A0590918D
:102AE0003B058F30910580F480913E0590913F0524
:102AF0008031910548F084EB90E06EEA70E00E942E
:102B0000F7000E94140808958FEF90E069EF70E0DD
:102B10000E94F70086E60E944B0708958AB18E6FE7
:102B20008AB9589A08950E948E150895F894E9E696
:102B3000F0E0808182608083E89A789408951F9203
:102B40000F920FB60F9211248F939F93AF93BF9361
:102B500080914E0290914F02A0915002B09151028B
:102B60000196A11DB11D80934E0290934F02A09338
:102B70005002B0935102BF91AF919F918F910F90EE
:102B80000FBE0F901F901895F8940E9493150E9405
:102B90009615789408955E985F9808955E9A5F9A66
:102BA00008955E985F9A08955C9A5D9A08950E94D0
:102BB000CB1510924E0210924F02109250021092BA
:102BC00051028FEF9FE7A4E081509040A040E1F7D1
:102BD00000C0000080914E0290914F02A0915002DF
:102BE000B09151028093B7029093B802A093B902BA
:102BF000B093BA0208950E94CE1510924E02109220
:102C00004F0210925002109251028FEF9FE7A4E002
:102C100081509040A040E1F700C0000080914E023A
:102C200090914F02A0915002B09151028093B20254
:102C30009093B302A093B402B093B50208950E949A
:102C4000D11510924E0210924F0210925002109223
:102C500051028FEF9FE7A4E081509040A040E1F740
:102C600000C0000080914E0290914F02A09150024E
:102C7000B09151028093A6029093A702A093A8025C
:102C8000B093A90208950E94D7150E941F160E94B2
:102C9000FB158091B7029091B802A091B902B09152
:102CA000BA02843125E0920720E0A20720E0B207B3
:102CB00018F58091A6029091A702A091A802B09168
:102CC000A902843125E0920720E0A20720E0B207A4
:102CD00098F48091B2029091B302A091B402B091A5
:102CE000B502843125E0920720E0A20720E0B20778
:102CF00018F41092540289C04091B7025091B80262
:102D00006091B9027091BA028091A6029091A702D7
:102D1000A091A802B091A90284179507A607B7074A
:102D2000C8F44091B7025091B8026091B902709115
:102D3000BA028091B2029091B302A091B402B09114
:102D4000B50284179507A607B70720F482E580939C
:102D500054025BC04091A6025091A7026091A80264
:102D60007091A9028091B7029091B802A091B90226
:102D7000B091BA0284179507A607B707C8F4409127
:102D8000A6025091A7026091A8027091A9028091B9
:102D9000B2029091B302A091B402B091B50284172F
:102DA0009507A607B70720F482E4809354022DC04C
:102DB0004091B2025091B3026091B4027091B50299
:102DC0008091B7029091B802A091B902B091BA0275
:102DD00084179507A607B707C0F44091B202509137
:102DE000B3026091B4027091B5028091A6029091F5
:102DF000A702A091A802B091A90284179507A6077F
:102E0000B70718F487E48093540282E06AE00E94D6
:102E1000A803809154020E94700308950E94020545
:102E20000E9442070E9459030E9495090E9464076C
:102E30000E94A4090E94560A0E94C4150E94E3023F
:102E40000E94D4150E94550480E590E00E94C909B3
:102E50008FEF9FE7A6E181509040A040E1F700C0CE
:102E600000008DE290E00E94130A8FEF9FE7A6E139
:102E700081509040A040E1F700C000000E94410A4C
:102E800086E090E00E94020180E090E00E94020152
:102E900086E090E00E94020180E090E00E94020142
:102EA00086E090E00E9402010E94E3020E94221547
:102EB00080913B0290913C022091390230913A027C
:102EC000820F931F2091370230913802820F931F97
:102ED000009761F781E090E00E9437078FEF9FEF46
:102EE000A0EE81509040A040E1F700C0000080E0DB
:102EF00090E00E9437078FEF9FE7A6E18150904056
:102F0000A040E1F700C0000080E090E00895505834
:102F1000BB27AA270ED0B1C1A2D130F0A7D120F093
:102F200031F49F3F11F41EF497C10EF4E095E7FBD6
:102F300064C1E92FB3D180F3BA176207730784071E
:102F4000950718F071F49EF5E2C10EF4E0950B2E92
:102F5000BA2FA02D0B01B90190010C01CA01A001EB
:102F60001124FF27591B99F0593F50F4503E68F146
:102F70001A16F040A22F232F342F4427585FF3CF87
:102F8000469537952795A795F0405395C9F77EF458
:102F90001F16BA0B620B730B840BBAF09150A1F0A1
:102FA000FF0FBB1F661F771F881FC2F70EC0BA0F27
:102FB000621F731F841F48F4879577956795B795AF
:102FC000F7959E3F08F0B3CF9395880F08F09927A7
:102FD000EE0F97958795089583D180F09F3740F441
:102FE00091110EF495C160E070E080E89FE30895D0
:102FF00026F01B16611D711D811D05C11FC1D9D091
:1030000008F481E008950CD038C130D140F027D1C8
:1030100030F021F45F3F19F0F0C0511179C11CC1AB
:103020003DD198F39923C9F35523B1F3951B550B63
:10303000BB27AA2762177307840738F09F5F5F4F8B
:10304000220F331F441FAA1FA9F333D00E2E3AF0CC
:10305000E0E830D091505040E695001CCAF729D0E6
:10306000FE2F27D0660F771F881FBB1F2617370735
:103070004807AB07B0E809F0BB0B802DBF01FF2765
:1030800093585F4F2AF09E3F510568F0B6C040C18B
:103090005F3FECF3983EDCF3869577956795B7959F
:1030A000F7959F5FC9F7880F911D9695879597F9BA
:1030B0000895E1E0660F771F881FBB1F6217730733
:1030C0008407BA0720F0621B730B840BBA0BEE1F48
:1030D00088F7E095089504D06894B11119C1089556
:1030E000E5D088F09F5790F0B92F9927B751A0F0FD
:1030F000D1F0660F771F881F991F1AF0BA95C9F78C
:1031000012C0B13081F003D1B1E0089500C1672F42
:10311000782F8827B85F39F0B93FCCF3869577953B
:103120006795B395D9F73EF4909580957095619524
:103130007F4F8F4F9F4F0895E89409C097FB3EF44F
:1031400090958095709561957F4F8F4F9F4F9923F4
:10315000A9F0F92F96E9BB279395F6958795779572
:103160006795B795F111F8CFFAF4BB0F11F460FF32
:103170001BC06F5F7F4F8F4F9F4F16C0882311F08A
:1031800096E911C0772321F09EE8872F762F05C09E
:10319000662371F096E8862F70E060E02AF09A9539
:1031A000660F771F881FDAF7880F9695879597F92E
:1031B0000895990F0008550FAA0BE0E8FEEF1616C8
:1031C0001706E807F907C0F012161306E407F5071B
:1031D00098F0621B730B840B950B39F40A2661F08F
:1031E000232B242B252B21F408950A2609F4A14032
:1031F000A6958FEF811D811D089597F99F6780E83F
:1032000070E060E00895882371F4772321F09850EE
:10321000872B762F07C0662311F499270DC0905194
:10322000862B70E060E02AF09A95660F771F881F62
:10323000DAF7880F9695879597F908959F3F31F0B3
:10324000915020F4879577956795B795880F911DD4
:103250009695879597F908959FEF80EC089500243F
:103260000A941616170618060906089500240A94EB
:1032700012161306140605060895092E0394000C71
:1032800011F4882352F0BB0F40F4BF2B11F460FF00
:1032900004C06F5F7F4F8F4F9F4F089557FD905829
:1032A000440F551F59F05F3F71F04795880F97FB0A
:1032B000991F61F09F3F79F08795089512161306C4
:1032C0001406551FF2CF4695F1DF08C016161706F3
:1032D0001806991FF1CF8695710561050894089528
:1032E000E5DFA0F0BEE7B91788F4BB279F3860F48C
:1032F0001616B11D672F782F8827985FF7CF869510
:1033000077956795B11D93959639C8F30895E8941C
:10331000BB2766277727CB0197F908950BD0ADCF50
:103320009EDF28F0A3DF18F0952309F066CF94CF35
:103330001124EECFB3DFA0F3959FD1F3950F50E0AA
:10334000551F629FF001729FBB27F00DB11D639F57
:10335000AA27F00DB11DAA1F649F6627B00DA11DFD
:10336000661F829F2227B00DA11D621F739FB00DA3
:10337000A11D621F839FA00D611D221F749F332713
:10338000A00D611D231F849F600D211D822F762FAC
:103390006A2F11249F5750408AF0E1F088234AF0A9
:1033A000EE0FFF1FBB1F661F771F881F91505040F5
:1033B000A9F79E3F510570F020CFAACF5F3FECF3F5
:1033C000983EDCF3869577956795B795F795E795E1
:1033D0009F5FC1F7FE2B880F911D9695879597F9F2
:1033E0000895FA01EE0FFF1F30962105310599F17E
:1033F0006115710561F48038BFE39B0749F168945A
:103400009038810561F08038BFEF9B0741F0992328
:1034100042F5FF3FE1053105210511F1E8940894DB
:10342000E795D901AA2329F4AB2FBE2FF85FD0F37B
:1034300010C0FF5F70F4A695E0F7F73950F019F06F
:10344000FF3A38F49F779F930CD00F9007FC905869
:1034500008953EF001CF60E070E080E89FE30895BA
:103460004FE79F775F934F933F932F939ED02F917A
:103470003F914F915F9152DF05C019F40EF0BDCE20
:1034800046CFEACE13DFC8F39638C0F707F80F929D
:10349000E8942BE33AEA48EB5FE74EDF0F920F9296
:1034A0000F924DB75EB70F92C0D0E4EEF0E016D0A9
:1034B0004F915F91EF91FF91E595EE1FFF1F49F04E
:1034C000FE57E0684427EE0F441FFA95E1F7419557
:1034D000550B32D00F9007FE26C00895DF93CF938F
:1034E0001F930F93FF92EF92DF927B018C01689400
:1034F00005C0DA2EEF011EDFFE01E894A5912591AB
:10350000359145915591AEF3EF0113DDFE01970121
:10351000A801DA9479F7DF90EF90FF900F911F9157
:10352000CF91DF9108959B01AC0160E070E080E8ED
:103530009FE369CD62CE82CEB9DEE8F39923D9F359
:10354000940F511DBBF39150504094F059F08823D3
:1035500032F0660F771F881F91505040C1F79E3F91
:10356000510544F7880F911D9695879597F9089511
:103570005F3FACF0983E9CF0BB27869577956795AA
:10358000B79508F4B1609395C1F7BB0F58F711F4E4
:1035900060FFE8CF6F5F7F4F8F4F9F4FE3CFB8CE75
:1035A0000EF04CCE59CE689428CE80DEC8F3992315
:1035B000D1F3C6F3DF93CF931F930F93FF92C92FDD
:1035C000DD2788232AF02197660F771F881FDAF7F7
:1035D00020E030E040E85FEB9FE3883920F0803E58
:1035E00030F021968F7794DCECE0F1E003C090DCC2
:1035F000E9E3F1E073DF8B01BE01EC01FB2E6F57B5
:1036000071097595771F880B990B98DD28E132E7D2
:1036100041E35FE38FDEAF2D9801AE01FF900F9184
:103620001F91CF91DF9185DC28CEFA01DC01AA0F32
:10363000BB1F9B01AC01BF5728F422273327442727
:1036400050781FC0B75188F4AB2F002446953795AA
:103650002795011CA395D2F3002069F0220F331F98
:10366000441FB395DAF30DD052CC61307105A0E858
:103670008A07B94630F49B01AC0166277727882773
:103680009078309621F020833183428353830895CC
:10369000AA1BBB1B51E107C0AA1FBB1FA617B70778
:1036A00010F0A61BB70B881F991F5A95A9F7809594
:1036B0009095BC01CD01089597FB092E07260AD0ED
:1036C00077FD04D0E5DF06D000201AF470956195EF
:1036D0007F4F0895F6F7909581959F4F0895CF936A
:1036E000DF93AC018230910510F442E050E0E091AC
:1036F0006405F091650520E030E0A0E0B0E024C072
:103700008081918184179507D0F08417950771F413
:1037100082819381109729F013969C938E93129730
:103720002CC0909365058093640527C02115310551
:1037300019F08217930718F49C01BD01EF019281E3
:103740008381DF01E92FF82F3097D1F6211531055C
:10375000F9F0C901841B950B8430910580F48A81AE
:103760009B816115710521F0FB019383828304C065
:103770009093650580936405FE01329642C0FE0178
:10378000E80FF91F4193519302979983888339C0B9
:103790008091620590916305009741F48091450204
:1037A00090914602909363058093620520914302B5
:1037B000309144022115310541F42DB73EB7809177
:1037C000470290914802281B390BE0916205F09165
:1037D0006305E217F30798F42E1B3F0B24173507F8
:1037E00070F0CA0102962817390748F08E0F9F1F04
:1037F00090936305809362054193519302C0E0E08A
:10380000F0E0CF01DF91CF9108950F931F93CF93F5
:10381000DF939C01009709F48CC0DC01129713968A
:103820001C921E9212976091640570916505611556
:10383000710589F48D919C911197820F931F2091AE
:103840006205309163052817390769F5B093630560
:10385000A09362056EC0FB0140E050E001C0FC0196
:10386000EA17FB0730F482819381AF010097B9F723
:103870001FC0E9012297FB83EA8308811981C901EE
:10388000800F911F8E179F0759F480819181800FBF
:10389000911F029699838883828193819B838A8377
:1038A0004115510529F4B0936505A093640541C005
:1038B000FA01B383A283C191D191EC0FFD1FAE1722
:1038C000BF0781F4F901929182918C0F9D1F02969E
:1038D000DA0111969C938E938281938113969C9327
:1038E0008E931297E0E0F0E002C0FB01BC01DB0127
:1038F00012968D919C9113970097B9F7CB01029680
:103900002D913C911197820F931F20916205309168
:1039100063052817390769F4309729F41092650573
:103920001092640502C01382128270936305609343
:103930006205DF91CF911F910F910895F894FFCF09
:10394000456173742000536F757468004E6F727414
:1039500068005765737420004E6F64653A2D00410E
:103960003A00423A00433A00493A0002000200029B
:1039700000020002000300010001000100B400B4D5
:0A39800000B40000006605200000FE
:00000001FF
